{
  "contractName": "ProductTracking",
  "abi": [
    {
      "inputs": [],
      "name": "RegisterAsManufacturer",
      "outputs": [],
      "stateMutability": "nonpayable",
      "type": "function"
    },
    {
      "inputs": [
        {
          "internalType": "string",
          "name": "_name",
          "type": "string"
        },
        {
          "internalType": "string",
          "name": "_brand",
          "type": "string"
        },
        {
          "internalType": "uint256",
          "name": "_price",
          "type": "uint256"
        },
        {
          "internalType": "string",
          "name": "_sn",
          "type": "string"
        }
      ],
      "name": "AddProduct",
      "outputs": [],
      "stateMutability": "nonpayable",
      "type": "function"
    },
    {
      "inputs": [],
      "name": "GetProduct",
      "outputs": [
        {
          "components": [
            {
              "internalType": "uint256",
              "name": "ManufacturerId",
              "type": "uint256"
            },
            {
              "internalType": "string",
              "name": "ProductName",
              "type": "string"
            },
            {
              "internalType": "string",
              "name": "ProductBrand",
              "type": "string"
            },
            {
              "internalType": "uint256",
              "name": "ProductPrice",
              "type": "uint256"
            },
            {
              "internalType": "string",
              "name": "ProductSN",
              "type": "string"
            },
            {
              "internalType": "bool",
              "name": "sold",
              "type": "bool"
            },
            {
              "internalType": "address",
              "name": "soldTo",
              "type": "address"
            }
          ],
          "internalType": "struct ProductTracking.Manufacturerproduct[]",
          "name": "",
          "type": "tuple[]"
        }
      ],
      "stateMutability": "view",
      "type": "function",
      "constant": true
    },
    {
      "inputs": [],
      "name": "RegisterAsSeller",
      "outputs": [],
      "stateMutability": "nonpayable",
      "type": "function"
    },
    {
      "inputs": [
        {
          "internalType": "uint256",
          "name": "Number",
          "type": "uint256"
        },
        {
          "internalType": "address",
          "name": "_Manufacturer",
          "type": "address"
        }
      ],
      "name": "PurchaseFromManufacturer",
      "outputs": [],
      "stateMutability": "payable",
      "type": "function",
      "payable": true
    },
    {
      "inputs": [],
      "name": "AllProduct",
      "outputs": [
        {
          "components": [
            {
              "internalType": "uint256",
              "name": "SellerId",
              "type": "uint256"
            },
            {
              "internalType": "string",
              "name": "ProductName",
              "type": "string"
            },
            {
              "internalType": "string",
              "name": "ProductBrand",
              "type": "string"
            },
            {
              "internalType": "uint256",
              "name": "ProductPrice",
              "type": "uint256"
            },
            {
              "internalType": "string",
              "name": "ProductSN",
              "type": "string"
            },
            {
              "internalType": "bool",
              "name": "sold",
              "type": "bool"
            },
            {
              "internalType": "address",
              "name": "soldTo",
              "type": "address"
            }
          ],
          "internalType": "struct ProductTracking.Sellerproduct[]",
          "name": "",
          "type": "tuple[]"
        }
      ],
      "stateMutability": "view",
      "type": "function",
      "constant": true
    },
    {
      "inputs": [],
      "name": "RegisterAsConsumer",
      "outputs": [],
      "stateMutability": "nonpayable",
      "type": "function"
    },
    {
      "inputs": [
        {
          "internalType": "address",
          "name": "_seller",
          "type": "address"
        },
        {
          "internalType": "uint256",
          "name": "Number",
          "type": "uint256"
        }
      ],
      "name": "PurchaseFromSeller",
      "outputs": [],
      "stateMutability": "payable",
      "type": "function",
      "payable": true
    },
    {
      "inputs": [],
      "name": "PurchaseHistory",
      "outputs": [
        {
          "components": [
            {
              "internalType": "string",
              "name": "ProductName",
              "type": "string"
            },
            {
              "internalType": "string",
              "name": "ProductBrand",
              "type": "string"
            },
            {
              "internalType": "uint256",
              "name": "ProductPrice",
              "type": "uint256"
            },
            {
              "internalType": "address",
              "name": "Seller",
              "type": "address"
            }
          ],
          "internalType": "struct ProductTracking.ConsumerHistory[]",
          "name": "",
          "type": "tuple[]"
        }
      ],
      "stateMutability": "view",
      "type": "function",
      "constant": true
    },
    {
      "inputs": [
        {
          "internalType": "string",
          "name": "SN",
          "type": "string"
        }
      ],
      "name": "Verify",
      "outputs": [
        {
          "internalType": "address",
          "name": "",
          "type": "address"
        },
        {
          "components": [
            {
              "internalType": "uint256",
              "name": "ManufacturerId",
              "type": "uint256"
            },
            {
              "internalType": "string",
              "name": "ProductName",
              "type": "string"
            },
            {
              "internalType": "string",
              "name": "ProductBrand",
              "type": "string"
            },
            {
              "internalType": "uint256",
              "name": "ProductPrice",
              "type": "uint256"
            },
            {
              "internalType": "string",
              "name": "ProductSN",
              "type": "string"
            },
            {
              "internalType": "bool",
              "name": "sold",
              "type": "bool"
            },
            {
              "internalType": "address",
              "name": "soldTo",
              "type": "address"
            }
          ],
          "internalType": "struct ProductTracking.Manufacturerproduct[]",
          "name": "",
          "type": "tuple[]"
        }
      ],
      "stateMutability": "view",
      "type": "function",
      "constant": true
    }
  ],
  "bytecode": "0x608060405234801561001057600080fd5b506126cd806100206000396000f3fe6080604052600436106100915760003560e01c8063a421186411610059578063a421186414610134578063b86c50451461015f578063da4fe1571461019d578063de19d819146101c8578063e6870abf146101e457610091565b80632ac97b72146100965780632b51a1b6146100ad57806335ef62a3146100c957806342843571146100f45780635ba19dc31461010b575b600080fd5b3480156100a257600080fd5b506100ab6101fb565b005b6100c760048036038101906100c29190611984565b610255565b005b3480156100d557600080fd5b506100de610745565b6040516100eb9190611bf9565b60405180910390f35b34801561010057600080fd5b50610109610a1c565b005b34801561011757600080fd5b50610132600480360381019061012d9190611d50565b610a76565b005b34801561014057600080fd5b50610149610cc3565b6040516101569190611f37565b60405180910390f35b34801561016b57600080fd5b5061018660048036038101906101819190611f59565b610ee3565b604051610194929190611fb1565b60405180910390f35b3480156101a957600080fd5b506101b2611208565b6040516101bf919061214d565b60405180910390f35b6101e260048036038101906101dd919061216f565b6114df565b005b3480156101f057600080fd5b506101f9611882565b005b6001600660003373ffffffffffffffffffffffffffffffffffffffff1673ffffffffffffffffffffffffffffffffffffffff16815260200190815260200160002060006101000a81548160ff021916908315150217905550565b600660003373ffffffffffffffffffffffffffffffffffffffff1673ffffffffffffffffffffffffffffffffffffffff16815260200190815260200160002060009054906101000a900460ff166102e1576040517f08c379a00000000000000000000000000000000000000000000000000000000081526004016102d89061220c565b60405180910390fd5b6000600260008373ffffffffffffffffffffffffffffffffffffffff1673ffffffffffffffffffffffffffffffffffffffff16815260200190815260200160002083815481106103345761033361222c565b5b9060005260206000209060060201905060018160050160006101000a81548160ff021916908315150217905550338160050160016101000a81548173ffffffffffffffffffffffffffffffffffffffff021916908373ffffffffffffffffffffffffffffffffffffffff1602179055508173ffffffffffffffffffffffffffffffffffffffff166108fc82600301549081150290604051600060405180830381858888f193505050501580156103ee573d6000803e3d6000fd5b50600360003373ffffffffffffffffffffffffffffffffffffffff1673ffffffffffffffffffffffffffffffffffffffff1681526020019081526020016000206040518060e0016040528060015481526020018360010180546104509061228a565b80601f016020809104026020016040519081016040528092919081815260200182805461047c9061228a565b80156104c95780601f1061049e576101008083540402835291602001916104c9565b820191906000526020600020905b8154815290600101906020018083116104ac57829003601f168201915b505050505081526020018360020180546104e29061228a565b80601f016020809104026020016040519081016040528092919081815260200182805461050e9061228a565b801561055b5780601f106105305761010080835404028352916020019161055b565b820191906000526020600020905b81548152906001019060200180831161053e57829003601f168201915b50505050508152602001600a84600301546105769190612319565b8460030154610585919061234a565b81526020018360040180546105999061228a565b80601f01602080910402602001604051908101604052809291908181526020018280546105c59061228a565b80156106125780601f106105e757610100808354040283529160200191610612565b820191906000526020600020905b8154815290600101906020018083116105f557829003601f168201915b50505050508152602001600015158152602001600073ffffffffffffffffffffffffffffffffffffffff168152509080600181540180825580915050600190039060005260206000209060060201600090919091909150600082015181600001556020820151816001019081610688919061252a565b50604082015181600201908161069e919061252a565b506060820151816003015560808201518160040190816106be919061252a565b5060a08201518160050160006101000a81548160ff02191690831515021790555060c08201518160050160016101000a81548173ffffffffffffffffffffffffffffffffffffffff021916908373ffffffffffffffffffffffffffffffffffffffff16021790555050506001600081548092919061073b906125fc565b9190505550505050565b6060600260003373ffffffffffffffffffffffffffffffffffffffff1673ffffffffffffffffffffffffffffffffffffffff168152602001908152602001600020805480602002602001604051908101604052809291908181526020016000905b82821015610a1357838290600052602060002090600602016040518060e0016040529081600082015481526020016001820180546107e39061228a565b80601f016020809104026020016040519081016040528092919081815260200182805461080f9061228a565b801561085c5780601f106108315761010080835404028352916020019161085c565b820191906000526020600020905b81548152906001019060200180831161083f57829003601f168201915b505050505081526020016002820180546108759061228a565b80601f01602080910402602001604051908101604052809291908181526020018280546108a19061228a565b80156108ee5780601f106108c3576101008083540402835291602001916108ee565b820191906000526020600020905b8154815290600101906020018083116108d157829003601f168201915b50505050508152602001600382015481526020016004820180546109119061228a565b80601f016020809104026020016040519081016040528092919081815260200182805461093d9061228a565b801561098a5780601f1061095f5761010080835404028352916020019161098a565b820191906000526020600020905b81548152906001019060200180831161096d57829003601f168201915b505050505081526020016005820160009054906101000a900460ff161515151581526020016005820160019054906101000a900473ffffffffffffffffffffffffffffffffffffffff1673ffffffffffffffffffffffffffffffffffffffff1673ffffffffffffffffffffffffffffffffffffffff1681525050815260200190600101906107a6565b50505050905090565b6001600760003373ffffffffffffffffffffffffffffffffffffffff1673ffffffffffffffffffffffffffffffffffffffff16815260200190815260200160002060006101000a81548160ff021916908315150217905550565b60011515600560003373ffffffffffffffffffffffffffffffffffffffff1673ffffffffffffffffffffffffffffffffffffffff16815260200190815260200160002060009054906101000a900460ff16151514610ad357600080fd5b33600982604051610ae49190612680565b908152602001604051809103902060006101000a81548173ffffffffffffffffffffffffffffffffffffffff021916908373ffffffffffffffffffffffffffffffffffffffff160217905550600260003373ffffffffffffffffffffffffffffffffffffffff1673ffffffffffffffffffffffffffffffffffffffff1681526020019081526020016000206040518060e001604052806000548152602001868152602001858152602001848152602001838152602001600015158152602001600073ffffffffffffffffffffffffffffffffffffffff168152509080600181540180825580915050600190039060005260206000209060060201600090919091909150600082015181600001556020820151816001019081610c06919061252a565b506040820151816002019081610c1c919061252a565b50606082015181600301556080820151816004019081610c3c919061252a565b5060a08201518160050160006101000a81548160ff02191690831515021790555060c08201518160050160016101000a81548173ffffffffffffffffffffffffffffffffffffffff021916908373ffffffffffffffffffffffffffffffffffffffff1602179055505050600080815480929190610cb8906125fc565b919050555050505050565b6060600460003373ffffffffffffffffffffffffffffffffffffffff1673ffffffffffffffffffffffffffffffffffffffff168152602001908152602001600020805480602002602001604051908101604052809291908181526020016000905b82821015610eda5783829060005260206000209060040201604051806080016040529081600082018054610d579061228a565b80601f0160208091040260200160405190810160405280929190818152602001828054610d839061228a565b8015610dd05780601f10610da557610100808354040283529160200191610dd0565b820191906000526020600020905b815481529060010190602001808311610db357829003601f168201915b50505050508152602001600182018054610de99061228a565b80601f0160208091040260200160405190810160405280929190818152602001828054610e159061228a565b8015610e625780601f10610e3757610100808354040283529160200191610e62565b820191906000526020600020905b815481529060010190602001808311610e4557829003601f168201915b50505050508152602001600282015481526020016003820160009054906101000a900473ffffffffffffffffffffffffffffffffffffffff1673ffffffffffffffffffffffffffffffffffffffff1673ffffffffffffffffffffffffffffffffffffffff168152505081526020019060010190610d24565b50505050905090565b600060606000600984604051610ef99190612680565b908152602001604051809103902060009054906101000a900473ffffffffffffffffffffffffffffffffffffffff16905080600260008373ffffffffffffffffffffffffffffffffffffffff1673ffffffffffffffffffffffffffffffffffffffff16815260200190815260200160002080805480602002602001604051908101604052809291908181526020016000905b828210156111f857838290600052602060002090600602016040518060e001604052908160008201548152602001600182018054610fc89061228a565b80601f0160208091040260200160405190810160405280929190818152602001828054610ff49061228a565b80156110415780601f1061101657610100808354040283529160200191611041565b820191906000526020600020905b81548152906001019060200180831161102457829003601f168201915b5050505050815260200160028201805461105a9061228a565b80601f01602080910402602001604051908101604052809291908181526020018280546110869061228a565b80156110d35780601f106110a8576101008083540402835291602001916110d3565b820191906000526020600020905b8154815290600101906020018083116110b657829003601f168201915b50505050508152602001600382015481526020016004820180546110f69061228a565b80601f01602080910402602001604051908101604052809291908181526020018280546111229061228a565b801561116f5780601f106111445761010080835404028352916020019161116f565b820191906000526020600020905b81548152906001019060200180831161115257829003601f168201915b505050505081526020016005820160009054906101000a900460ff161515151581526020016005820160019054906101000a900473ffffffffffffffffffffffffffffffffffffffff1673ffffffffffffffffffffffffffffffffffffffff1673ffffffffffffffffffffffffffffffffffffffff168152505081526020019060010190610f8b565b5050505090509250925050915091565b6060600360003373ffffffffffffffffffffffffffffffffffffffff1673ffffffffffffffffffffffffffffffffffffffff168152602001908152602001600020805480602002602001604051908101604052809291908181526020016000905b828210156114d657838290600052602060002090600602016040518060e0016040529081600082015481526020016001820180546112a69061228a565b80601f01602080910402602001604051908101604052809291908181526020018280546112d29061228a565b801561131f5780601f106112f45761010080835404028352916020019161131f565b820191906000526020600020905b81548152906001019060200180831161130257829003601f168201915b505050505081526020016002820180546113389061228a565b80601f01602080910402602001604051908101604052809291908181526020018280546113649061228a565b80156113b15780601f10611386576101008083540402835291602001916113b1565b820191906000526020600020905b81548152906001019060200180831161139457829003601f168201915b50505050508152602001600382015481526020016004820180546113d49061228a565b80601f01602080910402602001604051908101604052809291908181526020018280546114009061228a565b801561144d5780601f106114225761010080835404028352916020019161144d565b820191906000526020600020905b81548152906001019060200180831161143057829003601f168201915b505050505081526020016005820160009054906101000a900460ff161515151581526020016005820160019054906101000a900473ffffffffffffffffffffffffffffffffffffffff1673ffffffffffffffffffffffffffffffffffffffff1673ffffffffffffffffffffffffffffffffffffffff168152505081526020019060010190611269565b50505050905090565b600760003373ffffffffffffffffffffffffffffffffffffffff1673ffffffffffffffffffffffffffffffffffffffff16815260200190815260200160002060009054906101000a900460ff1661153557600080fd5b6000600360008473ffffffffffffffffffffffffffffffffffffffff1673ffffffffffffffffffffffffffffffffffffffff16815260200190815260200160002082815481106115885761158761222c565b5b9060005260206000209060060201905060018160050160006101000a81548160ff021916908315150217905550338160050160016101000a81548173ffffffffffffffffffffffffffffffffffffffff021916908373ffffffffffffffffffffffffffffffffffffffff1602179055508273ffffffffffffffffffffffffffffffffffffffff166108fc82600301549081150290604051600060405180830381858888f19350505050158015611642573d6000803e3d6000fd5b50600460003373ffffffffffffffffffffffffffffffffffffffff1673ffffffffffffffffffffffffffffffffffffffff168152602001908152602001600020604051806080016040528083600101805461169c9061228a565b80601f01602080910402602001604051908101604052809291908181526020018280546116c89061228a565b80156117155780601f106116ea57610100808354040283529160200191611715565b820191906000526020600020905b8154815290600101906020018083116116f857829003601f168201915b5050505050815260200183600201805461172e9061228a565b80601f016020809104026020016040519081016040528092919081815260200182805461175a9061228a565b80156117a75780601f1061177c576101008083540402835291602001916117a7565b820191906000526020600020905b81548152906001019060200180831161178a57829003601f168201915b50505050508152602001836003015481526020018573ffffffffffffffffffffffffffffffffffffffff1681525090806001815401808255809150506001900390600052602060002090600402016000909190919091506000820151816000019081611813919061252a565b506020820151816001019081611829919061252a565b506040820151816002015560608201518160030160006101000a81548173ffffffffffffffffffffffffffffffffffffffff021916908373ffffffffffffffffffffffffffffffffffffffff1602179055505050505050565b6001600560003373ffffffffffffffffffffffffffffffffffffffff1673ffffffffffffffffffffffffffffffffffffffff16815260200190815260200160002060006101000a81548160ff021916908315150217905550565b6000604051905090565b600080fd5b600080fd5b6000819050919050565b611903816118f0565b811461190e57600080fd5b50565b600081359050611920816118fa565b92915050565b600073ffffffffffffffffffffffffffffffffffffffff82169050919050565b600061195182611926565b9050919050565b61196181611946565b811461196c57600080fd5b50565b60008135905061197e81611958565b92915050565b6000806040838503121561199b5761199a6118e6565b5b60006119a985828601611911565b92505060206119ba8582860161196f565b9150509250929050565b600081519050919050565b600082825260208201905092915050565b6000819050602082019050919050565b6119f9816118f0565b82525050565b600081519050919050565b600082825260208201905092915050565b60005b83811015611a39578082015181840152602081019050611a1e565b60008484015250505050565b6000601f19601f8301169050919050565b6000611a61826119ff565b611a6b8185611a0a565b9350611a7b818560208601611a1b565b611a8481611a45565b840191505092915050565b60008115159050919050565b611aa481611a8f565b82525050565b611ab381611946565b82525050565b600060e083016000830151611ad160008601826119f0565b5060208301518482036020860152611ae98282611a56565b91505060408301518482036040860152611b038282611a56565b9150506060830151611b1860608601826119f0565b5060808301518482036080860152611b308282611a56565b91505060a0830151611b4560a0860182611a9b565b5060c0830151611b5860c0860182611aaa565b508091505092915050565b6000611b6f8383611ab9565b905092915050565b6000602082019050919050565b6000611b8f826119c4565b611b9981856119cf565b935083602082028501611bab856119e0565b8060005b85811015611be75784840389528151611bc88582611b63565b9450611bd383611b77565b925060208a01995050600181019050611baf565b50829750879550505050505092915050565b60006020820190508181036000830152611c138184611b84565b905092915050565b600080fd5b600080fd5b7f4e487b7100000000000000000000000000000000000000000000000000000000600052604160045260246000fd5b611c5d82611a45565b810181811067ffffffffffffffff82111715611c7c57611c7b611c25565b5b80604052505050565b6000611c8f6118dc565b9050611c9b8282611c54565b919050565b600067ffffffffffffffff821115611cbb57611cba611c25565b5b611cc482611a45565b9050602081019050919050565b82818337600083830152505050565b6000611cf3611cee84611ca0565b611c85565b905082815260208101848484011115611d0f57611d0e611c20565b5b611d1a848285611cd1565b509392505050565b600082601f830112611d3757611d36611c1b565b5b8135611d47848260208601611ce0565b91505092915050565b60008060008060808587031215611d6a57611d696118e6565b5b600085013567ffffffffffffffff811115611d8857611d876118eb565b5b611d9487828801611d22565b945050602085013567ffffffffffffffff811115611db557611db46118eb565b5b611dc187828801611d22565b9350506040611dd287828801611911565b925050606085013567ffffffffffffffff811115611df357611df26118eb565b5b611dff87828801611d22565b91505092959194509250565b600081519050919050565b600082825260208201905092915050565b6000819050602082019050919050565b60006080830160008301518482036000860152611e548282611a56565b91505060208301518482036020860152611e6e8282611a56565b9150506040830151611e8360408601826119f0565b506060830151611e966060860182611aaa565b508091505092915050565b6000611ead8383611e37565b905092915050565b6000602082019050919050565b6000611ecd82611e0b565b611ed78185611e16565b935083602082028501611ee985611e27565b8060005b85811015611f255784840389528151611f068582611ea1565b9450611f1183611eb5565b925060208a01995050600181019050611eed565b50829750879550505050505092915050565b60006020820190508181036000830152611f518184611ec2565b905092915050565b600060208284031215611f6f57611f6e6118e6565b5b600082013567ffffffffffffffff811115611f8d57611f8c6118eb565b5b611f9984828501611d22565b91505092915050565b611fab81611946565b82525050565b6000604082019050611fc66000830185611fa2565b8181036020830152611fd88184611b84565b90509392505050565b600081519050919050565b600082825260208201905092915050565b6000819050602082019050919050565b600060e08301600083015161202560008601826119f0565b506020830151848203602086015261203d8282611a56565b915050604083015184820360408601526120578282611a56565b915050606083015161206c60608601826119f0565b50608083015184820360808601526120848282611a56565b91505060a083015161209960a0860182611a9b565b5060c08301516120ac60c0860182611aaa565b508091505092915050565b60006120c3838361200d565b905092915050565b6000602082019050919050565b60006120e382611fe1565b6120ed8185611fec565b9350836020820285016120ff85611ffd565b8060005b8581101561213b578484038952815161211c85826120b7565b9450612127836120cb565b925060208a01995050600181019050612103565b50829750879550505050505092915050565b6000602082019050818103600083015261216781846120d8565b905092915050565b60008060408385031215612186576121856118e6565b5b60006121948582860161196f565b92505060206121a585828601611911565b9150509250929050565b600082825260208201905092915050565b7f6e6f742070726573656e74000000000000000000000000000000000000000000600082015250565b60006121f6600b836121af565b9150612201826121c0565b602082019050919050565b60006020820190508181036000830152612225816121e9565b9050919050565b7f4e487b7100000000000000000000000000000000000000000000000000000000600052603260045260246000fd5b7f4e487b7100000000000000000000000000000000000000000000000000000000600052602260045260246000fd5b600060028204905060018216806122a257607f821691505b6020821081036122b5576122b461225b565b5b50919050565b7f4e487b7100000000000000000000000000000000000000000000000000000000600052601260045260246000fd5b7f4e487b7100000000000000000000000000000000000000000000000000000000600052601160045260246000fd5b6000612324826118f0565b915061232f836118f0565b92508261233f5761233e6122bb565b5b828204905092915050565b6000612355826118f0565b9150612360836118f0565b9250828201905080821115612378576123776122ea565b5b92915050565b60008190508160005260206000209050919050565b60006020601f8301049050919050565b600082821b905092915050565b6000600883026123e07fffffffffffffffffffffffffffffffffffffffffffffffffffffffffffffffff826123a3565b6123ea86836123a3565b95508019841693508086168417925050509392505050565b6000819050919050565b600061242761242261241d846118f0565b612402565b6118f0565b9050919050565b6000819050919050565b6124418361240c565b61245561244d8261242e565b8484546123b0565b825550505050565b600090565b61246a61245d565b612475818484612438565b505050565b5b818110156124995761248e600082612462565b60018101905061247b565b5050565b601f8211156124de576124af8161237e565b6124b884612393565b810160208510156124c7578190505b6124db6124d385612393565b83018261247a565b50505b505050565b600082821c905092915050565b6000612501600019846008026124e3565b1980831691505092915050565b600061251a83836124f0565b9150826002028217905092915050565b612533826119ff565b67ffffffffffffffff81111561254c5761254b611c25565b5b612556825461228a565b61256182828561249d565b600060209050601f8311600181146125945760008415612582578287015190505b61258c858261250e565b8655506125f4565b601f1984166125a28661237e565b60005b828110156125ca578489015182556001820191506020850194506020810190506125a5565b868310156125e757848901516125e3601f8916826124f0565b8355505b6001600288020188555050505b505050505050565b6000612607826118f0565b91507fffffffffffffffffffffffffffffffffffffffffffffffffffffffffffffffff8203612639576126386122ea565b5b600182019050919050565b600081905092915050565b600061265a826119ff565b6126648185612644565b9350612674818560208601611a1b565b80840191505092915050565b600061268c828461264f565b91508190509291505056fea2646970667358221220bc9b12ebda2f6488fee1910633a989743eca5349c1c777964361a938cbde08e064736f6c63430008110033",
  "immutableReferences": {},
  "source": "// SPDX-License-Identifier: MIT\r\npragma solidity ^0.8.17;\r\n\r\ncontract ProductTracking {\r\n    uint ManufacturerID;\r\n    uint SalerID;\r\n\r\n    struct Manufacturerproduct{\r\n        uint ManufacturerId;\r\n        string ProductName;\r\n        string ProductBrand;\r\n        uint ProductPrice;\r\n        string ProductSN;\r\n        bool sold;\r\n        address soldTo;\r\n    }\r\n\r\n    struct Sellerproduct{\r\n        uint SellerId;\r\n        string ProductName;\r\n        string ProductBrand;\r\n        uint ProductPrice;\r\n        string ProductSN;\r\n        bool sold;\r\n        address soldTo;\r\n    }\r\n\r\n    struct ConsumerHistory{\r\n        string ProductName;\r\n        string ProductBrand;\r\n        uint ProductPrice;\r\n        address Seller;\r\n    }\r\n\r\n    mapping(address => Manufacturerproduct[]) ManufacturerProducts;\r\n    mapping(address => Sellerproduct[]) SellerProducts;\r\n    mapping(address => ConsumerHistory[]) ConsumerHistorys;\r\n    mapping(address => bool) presentManufacturer;\r\n    mapping(address => bool) presentSeller;\r\n    mapping(address => bool) presentConsumer;\r\n    mapping(address => mapping(address => bool)) access;\r\n    mapping(string => address) manufacDeteils;\r\n\r\n\r\n    // Manufacturer Part Start:-\r\n    \r\n    function RegisterAsManufacturer() public {\r\n        presentManufacturer[msg.sender] = true;\r\n    }\r\n\r\n    function AddProduct(string memory _name, string memory _brand, uint _price, string memory _sn) public {\r\n       require(presentManufacturer[msg.sender] == true);\r\n       manufacDeteils[_sn] = msg.sender;\r\n       ManufacturerProducts[msg.sender].push(Manufacturerproduct(ManufacturerID,_name,_brand,_price,_sn,false,address(0)));\r\n       ManufacturerID++;\r\n    }\r\n\r\n    function GetProduct() public view returns(Manufacturerproduct[] memory){\r\n        return ManufacturerProducts[msg.sender];\r\n    }\r\n\r\n    // Seller part Start:-\r\n\r\n    function RegisterAsSeller() public {\r\n        presentSeller[msg.sender] = true;\r\n    }\r\n\r\n    function PurchaseFromManufacturer(uint Number, address _Manufacturer) public payable{\r\n      require(presentSeller[msg.sender],\"not present\");\r\n      Manufacturerproduct storage _product = ManufacturerProducts[_Manufacturer][Number];\r\n      _product.sold = true;\r\n      _product.soldTo = msg.sender;\r\n      payable(_Manufacturer).transfer(_product.ProductPrice);\r\n      SellerProducts[msg.sender].push(Sellerproduct(SalerID,_product.ProductName,_product.ProductBrand,_product.ProductPrice + _product.ProductPrice/10,_product.ProductSN,false,address(0)));\r\n      SalerID++;\r\n    }\r\n\r\n    function AllProduct() public view returns(Sellerproduct[] memory){\r\n        return SellerProducts[msg.sender];\r\n    }\r\n\r\n\r\n    // Consumer Part Start:-\r\n\r\n    function RegisterAsConsumer() public {\r\n        presentConsumer[msg.sender] = true;\r\n    }\r\n\r\n    function PurchaseFromSeller(address _seller, uint Number) public payable{\r\n        require(presentConsumer[msg.sender]);\r\n        Sellerproduct storage _product = SellerProducts[_seller][Number];\r\n        _product.sold = true;\r\n        _product.soldTo = msg.sender;\r\n        payable(_seller).transfer(_product.ProductPrice);\r\n        ConsumerHistorys[msg.sender].push(ConsumerHistory(_product.ProductName, _product.ProductBrand, _product.ProductPrice, _seller));\r\n    }\r\n\r\n    function PurchaseHistory() public view returns(ConsumerHistory[] memory){\r\n        return ConsumerHistorys[msg.sender];\r\n    }\r\n\r\n    // Verification function for Consumer to verify Products\r\n    function Verify(string memory SN) public view returns(address,Manufacturerproduct[] memory) {\r\n       address manu = manufacDeteils[SN];\r\n       return (manu,ManufacturerProducts[manu]);\r\n    }\r\n}",
  "sourcePath": "C:\\codeRelated\\ProductTracking\\contracts\\ProductTracking.sol",
  "compiler": {
    "name": "solc",
    "version": "0.8.17+commit.8df45f5f.Emscripten.clang"
  },
  "schemaVersion": "3.4.16",
  "updatedAt": "2024-01-03T05:21:02.973Z",
  "networkType": "ethereum",
  "devdoc": {
    "kind": "dev",
    "methods": {},
    "version": 1
  },
  "userdoc": {
    "kind": "user",
    "methods": {},
    "version": 1
  }
}